:020000040000FA
:020000002228B4
:040002000034003492
:08000800A9000308A8004A0842
:10001000053E053C03191728CB0B10280A30CB00EE
:100020004B084A02031C172839088E0719284C0868
:100030008E0703181E283A088F00A6293A08013EA9
:100040008F00A62983168E15F0308500E0308600DB
:1000500001308C009F0198012030810050309200C7
:1000600083121D22003085000F309000C0308B00BD
:1000700097019F01451000309200C8010A30CB0063
:10008000CA0152227830AE000130AD00B5012D22F8
:100090000630B8002F106420051B4A29851B38291B
:1000A000051E7B203508553C03191D292F212A1CCC
:1000B00061285C21FF30AE00FF30AD0070211322BB
:1000C0004B28003085004B282608013C0319080006
:1000D0002508013C031D6E28491008002508023C34
:1000E000031D080049180800FF30AE00FF30AD00C6
:1000F000972113220800860185018316FF308500B1
:10010000860083126300051E82288316F030850066
:10011000E03086008312051F0800851F0800902824
:100120004514BC01BD01BE01BF0170211721051B93
:100130009628851B9628051BFF20851B0B21051E75
:10014000CC28F520AE201430C700FF30AE00FF30C1
:10015000AD0070211322C70BA9289B283908C600BF
:100160004A08BC00BD01BE01BF014608003C03199E
:100170000800C603BD0A3D080A3C031DB528BD01A1
:10018000BE0A3E080A3C031DB528BE01BF0A3F084F
:100190000A3C031DB5280800C8014510390883161C
:1001A0009A001C1500309B008B138B1BD4285530F4
:1001B0009D00AA309D009C148B179C18DD281C11F3
:1001C00083124A0883169A001C1501309B008B137A
:1001D0008B1BE72855309D00AA309D009C148B177F
:1001E0009C18F0281C11831208003908FF3C031DDD
:1001F00008004A08003C03190800CA0108007021E1
:10020000051BFF28CA030A304A02031C08000930F4
:10021000CA00B90308007021851B0B29CA0A0A30DD
:100220004A02031C08000030CA00B90A08000E1A6E
:100230001B290612080006160800662170212F1CD3
:100240004B285C217021B70B4B283808B700AD0A4A
:10025000AE0B4B280030AF0013222F214B28230870
:10026000B1002408B2002508B3002608B400080035
:10027000491400308B000030AA003B143508553C6F
:100280000319D4215530B500851F042A13225C219F
:1002900070214429491400308B000030AA003B141F
:1002A0003508553C0319BB215530B500051F042AFC
:1002B00013225C217021562940142608BF0025080E
:1002C000BE002408BD002308BC000800401034080C
:1002D000BF003308BE003208BD003108BC00080072
:1002E0003F0886003F08013C03197829451C7A29FC
:1002F000013085001D220030850018223E0886004E
:10030000023085001D220030850018223D0886003D
:10031000043085001D220030850018223C0886002C
:10032000083085001D22003085001822080049147D
:1003300045142A08BC00BD00BE00BF00702170211A
:100340002A08093C03189729451008000C18AE2903
:100350008C1817298C01B7298C10B7290C10AA0A00
:100360002A083C3C031DB7293B10BB21B7292808AC
:100370008300290809002D220130AF000030AA00B7
:10038000A30A2308C1000A3C031D08000030A30093
:10039000C100A40A2408C200063C031D0800003066
:1003A000A400C2003B18080000002608013C031D01
:1003B000F729A50A2508C300033C031D08000030E7
:1003C000A500C300A60A2608C400023C031D0800BD
:1003D0000130A500C3000030A600C4003B1808008F
:1003E0000030A300C1000030A400C2000800A50A2C
:1003F0002508C3000A3C031D08000030A500C30007
:10040000A60A2608C40008002308B1002408B20088
:100410002508B3002608B40039088E003A088F007A
:10042000C0308B004B287830AE000130AD000800A2
:100430000330A100A10B1A2A0800401C212A232204
:100440000800282208002D08AB00AB0B252A080065
:100450002E08AC00AC0B2A2A080041082302031D19
:10046000B00142082402031DB00143082502031D08
:10047000B00144082602031DB0013008553C0319A1
:1004800008000030A300C1000030A400C200023008
:10049000A500C3000130A600C4002F215530B000D4
:1004A000B5010800831600309B001C141A08831243
:1004B000B900CC008E007F30BA008F004C08FF3CA2
:1004C000031DCC0A831601309B001C141A088312EA
:0404D000CA00080056
:02400E00303F41
:00000001FF
